:1000000028C04CC078C24AC049C02BC247C046C0B5
:1000100045C044C043C042C041C040C03FC00000D2
:10002000000036000000000037000000000038002B
:10003000020202020202020202020102040810206D
:1000400020041008010200000400000000007805F0
:10005000E10511241FBECFE5D2E0DEBFCDBF11E028
:10006000A0E6B0E0E4E7FCE002C005900D92AC37FA
:10007000B107D9F722E0ACE7B1E001C01D92A03092
:10008000B207E1F710E0C8E2D0E003C02197FE011B
:10009000DBD5C732D107D1F7A8D2E0C5B1CF90E008
:1000A000FC01EC5BFF4F2491FC01E65CFF4F3491B7
:1000B000FC01E05DFF4FE491EE2341F1222399F032
:1000C000223071F028F4213071F48AB58F770AC09C
:1000D000233011F0243039F48CB58F7D8CBD03C0F2
:1000E0008AB58F7D8ABDF0E0EE0FFF1FE65DFF4F02
:1000F000A591B4919FB7F894611104C08C9130958B
:10010000382302C0EC913E2B3C939FBF0895CF93C0
:10011000DF9390E0FC01E65CFF4F2491FC01E05D81
:10012000FF4F8491882361F190E0880F991FFC01B3
:10013000EC5DFF4FC591D491FC01E65DFF4FA591A9
:10014000B491611109C09FB7F894888120958223EA
:100150008883EC912E230BC0623061F49FB7F89432
:100160008881322F309583238883EC912E2B2C931A
:100170009FBF06C08FB7F894E8812E2B28838FBFCE
:10018000DF91CF9108953FB7F8948091DD01909170
:10019000DE01A091DF01B091E00122B708B601FEB7
:1001A00005C02F3F19F00196A11DB11D3FBFBA2F09
:1001B000A92F982F8827820F911DA11DB11DBC0169
:1001C000CD0143E0660F771F881F991F4A95D1F72D
:1001D00008958F929F92AF92BF92CF92DF92EF924B
:1001E000FF926B017C01CFDF4B015C01C114D10494
:1001F000E104F104E9F0C7DFDC01CB0188199909BA
:10020000AA09BB09883E9340A105B10578F321E016
:10021000C21AD108E108F10888EE880E83E0981E22
:10022000A11CB11CC114D104E104F10421F7DECFFB
:10023000FF90EF90DF90CF90BF90AF909F908F9006
:1002400008950895AF92BF92CF92DF92EF92FF92FE
:100250000F931F93CF93DF936C017B018B01040FEE
:10026000151FEB015E01AE18BF08C017D10759F08A
:100270006991D601ED91FC910190F081E02DC601CC
:100280000995892B79F7C501DF91CF911F910F91C6
:10029000FF90EF90DF90CF90BF90AF9008952091A6
:1002A000BE013091BF012817390771F49091BC014C
:1002B0008091BD01981741F0E091BC01F0E0E45855
:1002C000FE4F808190E008958FEF9FEF08951F9378
:1002D000CF93DF93DC015C968D919C915D970097A5
:1002E00039F421E030E013963C932E9312973BC0F3
:1002F0005196ED91FC91529750962C915097322F38
:1003000030951FB75E964C915E97742F727041FDC9
:100310006095F8944081772311F0422B01C043236C
:100320004083EC012197F1F748E0508160FF02C063
:10033000522B01C053235083EC012197F1F76695AE
:10034000415099F78081772319F08323808302C07D
:10035000282B20831FBF5C968D919C915D97019700
:10036000F1F781E090E0DF91CF911F910895209106
:10037000BE013091BF012817390769F48091BD0192
:100380002091BC0190E0805C9F4F821B910960E44A
:1003900070E033D4089580E090E008952091BE018C
:1003A0003091BF0128173907B9F49091BC018091B1
:1003B000BD01981789F0E091BC01F0E0E458FE4FD0
:1003C00080812091BC0130E02F5F3F4F2F73332796
:1003D0002093BC0190E008958FEF9FEF089508955A
:1003E00080E090E0089561E082E059DE68E572E027
:1003F00080E090E0EEDE60E082E051DE68EC70E0EC
:1004000080E090E0E6CE61E082E049DE68EC70E0FA
:1004100080E090E0DEDE60E082E041DE68EC70E0EB
:1004200080E090E0D6CE009761F0FC0101900020C2
:10043000E9F73197AF01481B590BBC0181EE91E000
:1004400001CF80E090E00895CF93DF93ECDFEC01E3
:1004500087E890E0E8DF8C0F9D1FDF91CF91089532
:10046000F9D31F920F920FB60F9211242F933F933F
:100470008F939F93AF93BF938091D9019091DA01AD
:10048000A091DB01B091DC013091D80126E0230F6F
:100490002D3720F40296A11DB11D05C029E8230FB8
:1004A0000396A11DB11D2093D8018093D90190938B
:1004B000DA01A093DB01B093DC018091DD01909122
:1004C000DE01A091DF01B091E0010196A11DB11DF7
:1004D0008093DD019093DE01A093DF01B093E001F2
:1004E000BF91AF919F918F913F912F910F900FBE30
:1004F0000F901F9018951F920F920FB60F92112414
:100500002F933F934F935F936F937F938F939F931B
:10051000AF93BF93EF93FF93E091BE01F091BF01C2
:10052000309709F451C0968DA685B785858591FFD2
:1005300004C09C91892329F447C09C91892309F028
:1005400043C0A389B4899C918589809589238C9324
:10055000868997890197F1F7608D718DA685B7859A
:10056000558538E020E0CB010197F1F7822F90E02C
:1005700095958795282F4C91452309F02068315097
:1005800091F7868D81FD20958091BD0190E00196C7
:100590008F7399273091BC01381749F0A091BD01A4
:1005A000B0E0A458BE4F2C938093BD0103C0868D4C
:1005B0008160868F828D938D0197F1F7A389B4892D
:1005C0009C918589892B8C93FF91EF91BF91AF917D
:1005D0009F918F917F916F915F914F913F912F915B
:1005E0000F900FBE0F901F90189578948AB5826077
:1005F0008ABD8AB581608ABD83B7826083BF83B7B5
:10060000816083BF89B7826089BF80B7826080BF05
:1006100080B7816080BF329A319A3098379A8CB512
:1006200080648CBD60E083E072DD61E084E06FDDBA
:1006300061E082E06CDD1092FC011092FB011092EF
:10064000FA011092F9011092F8011092F70185E673
:1006500090E09093FE018093FD013091ED013530E3
:1006600020F541E250E05093F8014093F70143E652
:1006700050E05093FA014093F90142E450E0509366
:10068000FC014093FB012BB720622BBF45E350E0F8
:100690005093F5014093F40121E001C0220F3A95F7
:1006A000EAF72093F6010197F1F78091FB01909111
:1006B000FC01892B49F1E091BE01F091BF0121E0DD
:1006C000E13EF20709F1309739F0A389B4899C9192
:1006D0008589809589238C938091FF018E7F8093FB
:1006E000FF011092BD011092BC0181EE91E0909348
:1006F000BF018093BE01E091F401F091F50190817A
:100700008091F601892B8083E0E6F0E091E380E0C0
:10071000E437F80791F490EC692E91E0792E26E108
:10072000522E00E010E0EE24E394F12C43E0C42EBE
:10073000D12C52E0A52EB12C26C08081892781932F
:10074000E6CF8DE491E080DE68EE73E080E090E03B
:1007500040DD81EE91E00BDE892B89F0F092D7012C
:10076000E092D601C4EFD1E081EE91E000DE1816F0
:1007700019061CF481EE91E011DE2197A9F701150D
:10078000110509F03DDC8091D6019091D7018130AF
:10079000910571F48AE890E057DE81EC90E054DE38
:1007A00086EE90E051DEB092D701A092D601E7CF5D
:1007B0008230910509F04AC0F301252D11922A9546
:1007C000E9F78AEF90E02FDEC0E0D0E081EE91E023
:1007D000CEDD18161906DCF481EE91E0DFDD8F3FE7
:1007E000EFEF9E07A1F0FE01E054FE4F80838A30B8
:1007F00039F4C0ECD1E080E6882E80E0982E10C05D
:100800008D30B9F3682F81EE91E061DD21966EE1C4
:1008100070E080E090E0DDDCC531D105BCF2E9CFCD
:100820009991F40181914F0198135EC160E570E0E8
:1008300080E090E0CEDCF1E0C43DDF0789F7D092A4
:10084000D701C092D6018AE591E050C1039709F023
:1008500078CF81E091E0F8DD89E391E0F5DDC3DD5B
:10086000D2DD68E572E080E090E0B3DCCCDDCBDD8A
:10087000CADDB9DDB8DD68E572E080E090E0A9DCB2
:10088000C2DDC1DDC0DDAFDD68E572E080E090E093
:10089000A0DCB9DDB8DDB7DDA6DDA5DD68E572E079
:1008A00080E090E096DCAFDD9EDDADDD68E572E0D6
:1008B00080E090E08EDCA7DDA6DD95DD94DDA3DD94
:1008C00092DD68E572E080E090E083DC9CDD9BDDFA
:1008D0009ADD68E572E080E090E07BDC94DD68E51D
:1008E00072E080E090E075DC7EDD8DDD68E572E031
:1008F00080E090E06EDC77DD86DD85DD68E572E026
:1009000080E090E066DC7FDD7EDD6DDD6CDD7BDD33
:100910006ADD68E572E080E090E05BDC74DD63DD59
:1009200068E572E080E090E054DC6DDD6CDD5BDD5D
:100930005ADD69DD58DD68E572E080E090E049DC71
:1009400052DD61DD60DD5FDD68E572E080E090E052
:1009500040DC49DD48DD47DD46DD45DD68E572E028
:1009600080E090E036DC3FDD4EDD3DDD3CDD68E5DE
:1009700072E080E090E02DDC46DD45DD34DD33DDE6
:1009800042DD31DD68E572E080E090E022DC2BDDC5
:100990002ADD39DD38DD37DD68E572E080E090E0A2
:1009A00018DC21DD20DD1FDD68E572E080E090E0ED
:1009B00010DC29DD28DD17DD16DD25DD14DD68E519
:1009C00072E080E090E005DC0EDD1DDD1CDD68E5F9
:1009D00072E080E090E0FDDB06DD05DD04DD03DD97
:1009E00002DD68E572E080E090E0F3DB0CDD0BDD1A
:1009F000FADCF9DC08DDF7DC68E572E080E090E025
:100A0000E8DB01DDF0DC68E572E080E090E0E1DB4E
:100A1000FADCF9DCE8DCE7DCF6DCE5DC68E572E072
:100A200080E090E0D6DBEFDCDEDCDDDC68E572E068
:100A300080E090E0CEDBD7DCD6DCD5DCD4DCD3DCC8
:100A400068E572E080E090E0C4DBCDDCCCDC68E5FA
:100A500072E080E090E0BDDBD6DCC5DC68E572E0EA
:100A600080E090E0B6DBBFDCCEDC68E572E080E0E1
:100A700090E0AFDBC8DCC7DCC6DCC5DCC4DC68E505
:100A800072E080E090E0A5DBBEDCBDDCACDCABDC82
:100A9000BADCA9DC68E572E080E090E09ADBB3DCC8
:100AA000A2DCA1DCA0DC68E572E080E090E091DBF4
:100AB0009ADC99DC98DC68E572E080E090E089DB04
:100AC00092DCA1DCA0DC9FDC68E572E080E090E0D5
:100AD00080DB60ED77E080E090E07BDB60EA7FE048
:100AE00080E090E076DBBBCE89E890E0ADDC47CEDD
:100AF0001092E4011092E30188EE93E0A0E0B0E0F0
:100B00008093E5019093E601A093E701B093E8019B
:100B100089E790E09093E2018093E1011092F8015F
:100B20001092F7011092FA011092F9011092FC0153
:100B30001092FB011092FE011092FD016091FF01E5
:100B40006E7F6D7F6093FF016695617081E068271D
:100B500084E0A5DA61E084E0DADAEEE3F0E0E49143
:100B6000E093F101E4E3F0E0E491F0E0EE0FFF1F29
:100B7000E65DFF4F859194919093F3018093F2018C
:100B800060E083E0C4DA8091FF0181FD03C061E091
:100B900083E085DA83E08093ED01EDE3F0E0E4911A
:100BA000E093EE01E3E3F0E0E491F0E0EE0FFF1FED
:100BB000E25EFF4F859194919093F0018093EF0155
:100BC000089589E790E09093E2018093E10180919C
:100BD000BE019091BF01815E914071F4E091F401FA
:100BE000F091F50190818091F601809589238083B1
:100BF0001092BF011092BE01089597FB072E16F4C4
:100C0000009406D077FD08D00BD007FC05D03EF449
:100C1000909581959F4F0895709561957F4F0895A8
:100C2000AA1BBB1B51E107C0AA1FBB1FA617B70712
:100C300010F0A61BB70B881F991F5A95A9F780952E
:100C40009095BC01CD010895EE0FFF1F0590F49122
:100C5000E02D099481E090E0F89400C010E0C8E233
:100C6000D0E003C0FE01F0DF2196C932D107D1F7F1
:040C7000F894FFCF26
:100C7400445043545059465950525A5443495E4380
:100C840044504345000000000067012201F00121A7
:100C940001B701CE014F010D0A0054686973206940
:100CA4007320796F75722077616B6575702063614D
:100CB4006C6C2066726F6D20746865204E696E746A
:100CC400656E646F2067656E65726174696F6E210D
:100CD400004C6576656C203120666C61673A20743F
:100CE40048655F6245617537795F30665F376833A1
:100CF4005F424155440057656C636F6D6520746FA6
:100D0400206C6576656C20322100666C61673A2040
:100D14000057656C6C20646F6E6520616E67656C4E
:100D240068656164656420686970737465723B20EA
:100D34007468652073746172792064796E616D6F73
:100D4400206177616974732E0057656C636F6D65FC
:100D540020746F206C6576656C203321004F7065BC
:100D64006E43544620323031390020203C2D2D2D45
:100D74002D20576F6F742120546861742773207479
:0C0D8400686520666C6167203A29000059
:00000001FF
